:10141C001213EA121041121433120C6612136E12CC
:07142C0010CB12144880F5FB
:04128700C10AC109CE
:1010CB0030B70320B669D2AF300B6F300A3820B47B
:1010DB000830B5051214CD802D30B40820B505129B
:1010EB0014C4802220B41F20B51CC2AFD295D29459
:1010FB001214BB7FC87E001213B01214CD7F967EE4
:10110B00001213B0D2AF30B43130B52E30091A20E3
:10111B00B70520B602801530B70620B6030214C4FB
:10112B0020B71730B6140214CD20090E0214B2C228
:0B113B00AFE4FFFE12119E1214D6223A
:0914B200C290D291C292D29322A1
:0914BB00D290C291D292C2932298
:0914C400D290C291C292D293228F
:0914CD00C290D291D292C2932286
:0914D600C290C291C292C293229D
:1013B000D3EF9400EE940040147D6E7C00ED1D7020
:0D13C000011CED4C70F7EF1F70E61E80E37E
:0113CD0022FD
:10000E0000000000000000000000000000000000E2
:05001E000000000022BB
:0F148900D281D282D283D284D285D286D28722D8
:08000300B2A31213B0B2A32254
:10128B00020E0000020A000002080000020C0064BB
:04129B000210000A33
:10145900758922758C48758A48D2AFD2A9D28C2257
:03000B000213904D
:10139000C0E0C0D0050FE50F7002050ED3950DE536
:1013A0000E950C4006750E00750F00D0D0D0E032BF
:10136E00C3E50F950BE50E950A5004D2948002C288
:10137E0094C3E50F9509E50E95085003D29522C248
:02138E009522A6
:10129F00021800000216000002140000021A0032A9
:0412AF00C10BC10CA2
:0D14980075CD4B75CCFDD2AFD2ADD2CA22BE
:03002B00020E5A68
:100E5A00C0E0C0F0C083C082C0D075D000C000C05E
:100E6A0001C002C003C004C005C006C007C2CF202B
:100E7A000C03020F0F0519E5197002051820B703B4
:100E8A0030B60875160075170F801920B71620B6E8
:100E9A0013D3E5179400E51694004008E5171517D3
:100EAA0070021516C3E5199414E5189400405612F9
:100EBA0012F18E448F45D3E5159401E51494004050
:100ECA0021D3E5179400E5169400500BC3E5459429
:100EDA00C8E5449400500BE51524FFFFE51434FFE0
:100EEA008019E51745167017D3E54594C8E544946B
:100EFA0000400CE5152401FFE43514FE12119E751D
:100F0A001800751900D007D006D005D004D003D038
:100F1A0002D001D000D0D0D082D083D0F0D0E0323D
:10119E00AB07AA06C3EA94004044D3EB9405EA9445
:1011AE0000503BEB4A700AF508F509F50AF50B807D
:1011BE0026EB24FFFFEA34FFFEAC12AD13120D92A4
:1011CE00E51B2FF50BE51A3EF50AC3E50B9511F558
:0F11DE0009E50A9510F5088A148B151211ED22F8
:10123B00C281C284C285C286C2877FE87E03121335
:10124B00B0121489C281C283C284C286C2877FE86E
:10125B007E031213B0121489C285C2867FE87E0307
:10126B001213B0121489C282C283C284C285C28691
:0C127B00C2877FE87E031213B0021489C2
:1011ED00121489E5147046E5151460161460181470
:1011FD00601D14602514602B24057031C282C283DA
:10120D00800FC285C28622C281C283C2848006C27B
:10121D0081C284C285C286C28722C285C286C2812E
:0E122D00C28222C284C285C281C282C28722CE
:0D14A50044697374616E63653A25640A0042
:0412B300021E000017
:10140400758922758DFD758BFDC2ABE4F5877598E2
:0814140050D2AFD2ACD28E22FF
:03002300020AAA24
:100AAA00C0E0C0F0C083C082C0D075D000C000C012
:100ABA0001C002C003C004C005C006C007209803D5
:100ACA00020C4BAF99751C008F1DE51C6003020CCC
:100ADA0046E51D24987003020C292468B4160040C8
:100AEA0003020C46900AF5F8282873020B37020B0A
:100AFA003D020B43020B49020B4F020B51020B6BD7
:100B0A00020B7F020B89020B99020C13020C46029C
:100B1A000C18020C46020C46020C46020B9E020BF3
:100B2A00B1020BC4020BD7020BEA020BFD1214B27C
:100B3A00020C461214BB020C461214C4020C4612D2
:100B4A0014CD020C468014C20B7539FF753A007534
:100B5A003B2E7B01E4FD7F3012114A1214D6020C9F
:100B6A0046D20B7539FF753A03753B2E7B01E4FDBE
:100B7A007F30020C0EE5152401FFE435148009E5E7
:100B8A001524FFFFE51434FFFE12119E020C46B233
:100B9A00A3020C46C20A7539FF753A00753B2E7BD3
:100BAA0001E4FD7F20805DD20A7539FF753A02752E
:100BBA003BEE7B01E4FD7F20804AC2097539FF754F
:100BCA003A00753B2E7B01E4FD7F108037D2097510
:100BDA0039FF753A03753B0E7B01E4FD7F108024D3
:100BEA00C20C7539FF753A00753B2E7B01E4FD7F17
:100BFA00408011D20C7539FF753A03753B4E7B0163
:100C0A00E4FD7F4012114A8033120026802E121210
:100C1A00F18E448F458545993099FDC299801D1200
:100C2A0012F18E448F45D2997BFF7A1479A58544B7
:100C3A00258545261207B03099FDC2993098FDC224
:100C4A0098D007D006D005D004D003D002D001D066
:0C0C5A0000D0D0D082D083D0F0D0E032A7
:100C6600121404AF99EF640B600320B2F6120FB6AC
:100C760020B70920B60630B40320B57A20B7033072
:100C8600B6327F327E001200037539FF753A03755E
:100C96003B0E7B01E4FD7F1012114A7FF47E0112A8
:100CA60013B07539FF753A00753B2E7B01E4FD7F65
:100CB6001012114A30B40320B5327F327E00120082
:100CC600037539FF753A02753BEE7B01E4FD7F2023
:100CD60012114A7FF47E011213B07539FF753A007E
:100CE600753B2E7B01E4FD7F2012114A7FF47E01C5
:100CF6001213B0020C76300A127539FF753A027576
:100D06003BEE7B01E4FD7F2012114A300912753952
:100D1600FF753A03753B0E7B01E4FD7F1012114A05
:100D2600300B127539FF753A03753B2E7B01E4FDD6
:100D36007F3012114A300C127539FF753A03753B34
:100D46004E7B01E4FD7F4012114A7FF47E011200C2
:0F0D560003121459121498E4F514F5150211ED57
:0400260075E7202238
:1014480020B20D7FD07E071213B020B203120026FF
:011458002271
:0412B70002440000ED
:0814DF00AFCDADCCEFFEEDFF37
:0114E70022E2
:1012F100D2A012000EC2A030A1FD1214DF8E428FC7
:101301004320A1FD1214DF8E468F47C3E547954365
:0D131100FFE5469542FE7C007D3B020DA4E9
:101433001212BC7539FF753A04753BAE7B04E4FDAB
:051443007F2002114AA8
:100FB6001212BC7539FF753A02753BCE7B01E4FD12
:100FC6007F5012114A7539FF753A03753BEE7B0166
:100FD600E4FD7F6012114A7539FF753A03753B6E61
:100FE6007B027D027F3012114A7539FF753A04750E
:100FF6003B0E7F181211467539FF753A04753B2E64
:101006007F281211467539FF753A04753B4E7B01F0
:101016007D067F3812114A7539FF753A04753B6EA5
:101026007B017D067F4812114A7539FF753A0475B2
:0B1036003B8E7B017D067F5802114AB3
:0914E800D2A5D2A4C2A5C2A4221F
:0714F100C2A5D2A4D2A5227E
:07131E00AD071214E87F780F
:10132500E4FEF541EEC3940874809480500DEF25DA
:10133500E0FF92A5D2A4C2A40E80E9D2A5D2A4C290
:01134500A403
:011346002284
:1014690012131EE4FF121325AF051213250214F1FE
:1014790012131E7F40121325AF051213250214F112
:1012BC00E4FCECC39408748094805028EC24B0FFB8
:1012CC001214697F10121469E4FF121469E4FBEB29
:1012DC00C39480748094805008E4FF1214790B80BE
:0412EC00EE0C80CEB6
:0112F00022DB
:1013CE00AC07ED24B0FF121469EC540FFF12146930
:0C13DE00EC54F0C4540F4410FF021469DA
:041146007B017D06A6
:02114A008F36DE
:10114C00E4F53CF53DEBC454F02536F53EED14FFCB
:10115C00EB25E02FF5408D3FE53FD395405032AD68
:10116C003FAF361213CEAC36ECC3953E501FAB39A5
:10117C00AA3AA93B053DE53DAE3C7002053C14F591
:10118C00828E83120D65FF1214790C80DB053F8073
:01119C00C78B
:01119D00222F
:101041007FAE121469E4FF1214697F101214697FD4
:10105100401214697F811214697FFF1214697FA104
:101061001214697FC81214697FA81214697F3F1294
:1010710014697FD3121469E4FF1214697FD5121425
:10108100697F801214697FD91214697FF112146982
:101091007FDA1214697F121214697FDB1214697FDF
:1010A100201214697F201214697F021214697F8D46
:1010B1001214697F141214697FA41214697FA61295
:0A10C10014697FAF1214690212BC1B
:10002E0000000000000000000000000000000000C2
:10003E0000000000000000000000000000000000B2
:10004E0000000000000000000000000000000000A2
:10005E000000000000000000000000000000000092
:10006E000000000000000000000000000000000082
:10007E000000000000000000000000000000000072
:10008E000000000000000000000000000000000062
:10009E000000000000000000000000000000000052
:1000AE000000000000000000000000000000000042
:1000BE000000000000000000000000000000000032
:1000CE000000000000000000000000000000000022
:1000DE000000000000000000000000000000000012
:1000EE000000000000000000000000000000000002
:1000FE0000000000000000000000000000000000F2
:10010E0000000000000000000000000000000000E1
:10011E0000000000000000000000000000000000D1
:10012E0000000000000000000000000000000000C1
:10013E0000000000000000000000000000000000B1
:10014E0000000000000000000000000000000000A1
:10015E000000000000000000000000000000000091
:10016E000000000000000000000000000000000081
:10017E000000000000000000000000000000000071
:10018E000000000000000000000000000000000061
:10019E000000000000000000000000000000000051
:1001AE000000000000000000000000000000000041
:1001BE000000000000000000000000000000000031
:1001CE000000000000000000000000000000000021
:1001DE000000000000000000000000000000000011
:1001EE000000000000000000000000000000000001
:1001FE0000000000000000000000000000000000F1
:10020E0000000000000000000000000000000000E0
:10021E0000000000000000000000000000000000D0
:10022E000000F808080808090E0808080808000069
:10023E0080601F00000000000000000000000000B1
:10024E0080A0908E888888FF888888888880800023
:10025E00000000FC44444444444444FC00000000BC
:10026E00008060F80710901011161010D0100000CA
:10027E00010000FF4040415E4040704E4140400052
:10028E00101010FF101082621E020242827E0000C9
:10029E000444827F010100FE4242424242FE0000BF
:1002AE002424A4FE232200FE22222222FE0000008D
:1002BE00080601FF0146407F424242427F40400015
:1002CE0000000000307060FECECC783000000000E0
:1002DE00000000000C0E077F73331E0C00000000A0
:1002EE0000007C7C7C7C7C0010F8FCF81000000088
:1002FE00000000F0FCFE0E0E0607030100000000D9
:10030E000080503070028684CCFCF8700000000033
:10031E000000000E3F7F7F7161415C0C1420400095
:10032E0000003814143800043C040018242418006B
:10033E0000000000007F7F41633E1C0000000000B3
:10034E0000003814143800043C040018242418004B
:10035E00000000001C3E6141517736000000000095
:10036E00000080E0F078381C0E0E06070303C3FF72
:10037E00FFC3030307060E0E1C3878F0E080000062
:10038E00F8FF0F03000000000000000080E0FFFFF8
:10039E00FFFFE0800000000000000000030FFFF8E8
:1003AE001FFFF0C0E06070383C3C1E1F0F0F0F07A0
:1003BE00070F0F0F1F1E3C3C387060E0C0F0FF1F90
:1003CE00000001070F1E1C38307060E0C0C0C0C0B6
:1003DE00C0C0C0C0E0607030381C0E0F03010000BA
:1003EE000000E0F03818007C7C001838F0E00000C7
:1003FE000000070F1C3830303030381C0F0700005B
:10040E000020100807FC24242424242404040000C3
:10041E0040300000384341455941417101083000D8
:10042E000000804020100C03C030000000000000CF
:10043E000001207028242221202024283060000072
:10044E008060F8078888FF888820D81710F0100081
:10045E000000FF003F1010109F403708364180000B
:10046E00202424A47F2434282620FE0222DA06002B
:10047E000402FF49494949FF0000FF081008070020
:10048E0000FE0222DA06000000FF0000000000005D
:10049E0000FF08108847201807000718204080002A
:1004AE00000000000000000000000080C0C0E0F06E
:1004BE00F0F8787C3C3E1E1E1E0F0F0F0F0FEFFF45
:1004CE00FFEF0F0F0F0F0F1E1E1E3E3C7C78F8F035
:1004DE00F0E0C0C08000000000000000000000003E
:1004EE000000000080C0F0F8FC7E1F0F0703030120
:1004FE0000000000000000000000000000F0FFFF00
:10050E00FFFFF000000000000000000000000000EF
:10051E00010307070F3F7EFCF8F0C08000000000CB
:10052E0000E0F8FEFF3F0F03000000000000000097
:10053E00000000000000000000000000F8FFFFFFB8
:10054E00FFFFFFF8000000000000000000000000A8
:10055E000000000000000000030F3FFFFEF8E00067
:10056E00FEFFFFFF01000000000000000000000081
:10057E00000000000000000080C0C0FCFFFFFFFF75
:10058E00FFFFFFFFFCC0C080000000000000000065
:10059E00000000000000000000000001FFFFFFFE51
:1005AE007FFFFFFF8000000000000000000080C001
:1005BE00E0E0F0F8FCFCFEFFFFFFFF7F7F7F3F3F98
:1005CE003F3F7F7F7FFFFFFFFFFEFCFCF8F0E0E088
:1005DE00C08000000000000000000080FFFFFF7FD1
:1005EE0000071F7FFFFCE0E070783C3E3E1F1F0FB0
:1005FE000F0F0707030303010100000000000000B6
:10060E0000000000000000010103030307070F0FA5
:10061E000F1F1F3E3E3C7870E0E0FCFF7F1F07007F
:10062E000000000001070F1F3F7EFCF0E0E0C080DD
:10063E0000000000000000000000000000000000AC
:10064E00000000000000000000000000000000009C
:10065E0080C0C0E0F0F87E3F1F0F030100000000D5
:10066E000000000000000000000000010307070F5B
:10067E000F1F1E3E3C7C787878F0F0F0F0F0F0F032
:10068E00F0F0F0F0F0F0F07878787C3C3C1E1F0F24
:10069E000F0703030100000000000000000000002F
:1006AE0000E010080810E000000F102020100F00CE
:1006BE0000001010F8000000000020203F20200055
:1006CE00007008080808F0000030282422213000AD
:1006DE0000300808088870000018202121221C0014
:1006EE000000804030F8000000060524243F24243A
:1006FE0000F88888880808000019202020110E00B4
:10070E0000E0108888900000000F112020201F00AC
:10071E0000180808886818000000003E010000005C
:10072E000070880808887000001C222121221C00FD
:10073E0000F008080810E0000001122222110F003C
:1013EA00C3E50D951BFFE50C951AFEEF7802CEC3F7
:0A13FA0013CE13D8F9F5138E12225A
:03000000020F2AC2
:0C0F2A00787FE4F6D8FD758147020F7156
:100D6500BB010CE58229F582E5833AF583E0225043
:100D750006E92582F8E622BBFE06E92582F8E2228D
:0D0D8500E58229F582E5833AF583E49322A7
:100D9200EF8DF0A4A8F0CF8CF0A428CE8DF0A42E75
:020DA200FE222F
:100DA400BC000BBE0029EF8DF084FFADF022E4CC33
:100DB400F875F008EF2FFFEE33FEEC33FCEE9DECFC
:100DC400984005FCEE9DFE0FD5F0E9E4CEFD22ED42
:100DD400F8F5F0EE8420D21CFEADF075F008EF2F8C
:100DE400FFED33FD4007985006D5F0F222C398FD7D
:050DF4000FD5F0EA221A
:10074E00E5312425F8E60531227822300702782596
:10075E00E475F001120E24020DF92000EB7F2ED26B
:10076E00008018EF540F2490D43440D4FF30040B83
:10077E00EF24BFB41A0050032461FFE53260021566
:10078E00320535E5357002053430070D7822E475F3
:10079E00F001120E24EF020E120213477403D20759
:1007AE008003E4C207F5318B228A238924E4F532D3
:1007BE00F534F535E53260077F2012078980F5752F
:1007CE0033FFC201C200C202C203C205C206C20882
:1007DE00120757FF700D3007057F0012079AAF35CD
:1007EE00AE3422B4255FC2D5C204120757FF24D0FF
:1007FE00B40A00501A75F00A783230D50508B6FFE3
:10080E000106C6A426F620D5047002D20380D92490
:10081E00CFB41A00EF5004C2E5D20402099AD201F5
:10082E0080C6D20080C0D20280BCD2D580BAD2059A
:10083E0080B47F201207892002077401B532004070
:10084E00F112074EFF1207890207C2D208D20680A4
:10085E009512074EFB12074EFA12074EF94A4B70CD
:10086E0006796B7A0A7BFF20022EE532602A7E0023
:10087E008E82758300120D6560060EEE653370F084
:10088E00C2D5EBC0E0EAC0E0E9C0E0EE1209E1D06B
:10089E00E0F9D0E0FAD0E0FB120DF9FF60AAEBC050
:1008AE00E0EAC0E0E9C0E0120789D0E02401F9D007
:1008BE00E03400FAD0E0FBE5330460DCD533D980B8
:1008CE00877BFF7A0979DDD202809C7910800279CC
:1008DE0008C206C2088008D2D5790A8004790AC2F5
:1008EE00D5E533047002F533E4FAFDFEFF12074E30
:1008FE00FC7B0820011312074EFD7B1030000A12FC
:10090E00074EFE12074EFF7B20EC3382D592D55058
:10091E0013C3E43000069FFFE49EFEE42001039D16
:10092E00FDE49CFCE4CBF8C201EC700CCFCECDCC38
:10093E00E824F8F870F38017C3EF33FFEE33FEEDC3
:10094E0033FDEC33FCEB33FB994002FB0FD8E9EBA4
:10095E00300105F8D0E0C448B201C0E00AEC4D4EBB
:10096E004F78207B0070C2EAB5330040BCC0E01265
:10097E0009E3D0F0D0E0200104C4C0E0C4B201C04D
:10098E00F0120772D0F0D5F0EB0207C2120E340847
:10099E005F5308D95808304C082C4208DD4F08E543
:0F09AE004408E54908454308EB5508CF4608CFF4
:1009BD004508CF470A8B5008342D08382E085B2B7D
:1009CD00083C230859200A742A07F44800000853EC
:1009DD003F3F3F00790AA2D5200314300509B91015
:1009ED00020404B9080104A2D52006025001042016
:1009FD0002689202B532005034C0E07F20300319F6
:100A0D007F30A20272067205500F120A3AC202C25C
:100A1D0006C205C2087F30800F300503E9C0E01221
:100A2D000789300503D0E0F9D0E0B532CC30051799
:100A3D007F30B9100C1207897F583004077F7880FA
:100A4D0003B908031207893002057F2D0207897F3C
:100A5D00202008F87F2B2006F322920280CF286EEB
:100A6D00756C6C2900D20112074E3001F8C2017865
:100A7D003230D50108F60207F42D504349581207BC
:100A8D004E2403B405004001E4900A869312077AC0
:0D0A9D00743A12077AD2037532040208D9A8
:100F360002141CE493A3F8E493A34003F68001F2A1
:100F460008DFF48029E493A3F85407240CC8C333BC
:100F5600C4540F4420C8834004F456800146F6DF8B
:100F6600E4800B0102040810204080901287E47E82
:100F7600019360BCA3FF543F30E509541FFEE49380
:100F8600A360010ECF54C025E060A840B8E493A347
:100F9600FAE493A3F8E493A3C8C582C8CAC583CA72
:100FA600F0A3C8C582C8CAC583CADFE9DEE780BE2A
:0112BB000032
:100DF900BB010689828A83E0225002E722BBFE02F8
:090E0900E32289828A83E493222A
:100E1200BB010689828A83F0225002F722BBFE01BF
:020E2200F322B9
:100E2400FAE6FB0808E6F925F0F618E6CA3AF622CF
:100E3400D083D082F8E4937012740193700DA3A34D
:100E440093F8740193F5828883E473740293686061
:060E5400EFA3A3A380DF61
:10134700EFB40A07740D121352740A309811A89952
:10135700B8130CC2983098FDA899C298B811F63006
:0713670099FDC299F59922DE
:00000001FF
