:1015AB001215791210011215C2120C9212151D127E
:0715BB00121F1215D780F585
:04142E00C10AC10925
:10121F0030B70320B669D2AF300B6F300A3820B425
:10122F000830B50512165E802D30B40820B50512B2
:10123F001655802220B41F20B51CC2AFD295D29470
:10124F0012164C7FC87E0012153F12165E7F967ED7
:10125F000012153FD2AF30B43130B52E30091A20FD
:10126F00B70520B602801530B70620B60302165513
:10127F0020B71730B61402165E20090E021643C2AD
:0B128F00AFE4FFFE1212FD12166722F2
:09164300C290D291C292D293220E
:09164C00D290C291D292C2932205
:09165500D290C291C292D29322FC
:09165E00C290D291D292C29322F3
:09166700C290C291C292C293220A
:10153F00D3EF9400EE940040147D6E7C00ED1D708F
:0D154F00011CED4C70F7EF1F70E61E80E3ED
:01155C00226C
:10000E0000000000000000000000000000000000E2
:05001E000000000022BB
:0F161800D281D282D283D284D285D286D2872247
:08000300B2A312153FB2A322C3
:1014320002100000021200000208000F020C00005D
:0C144200020A0000020E00640214000206
:1015E800758922758CA4758AA4D2AFD2A9D28C220F
:03000B000213E6F7
:1013E600C0E0C0D00511E51170020510D3950FE5D8
:1013F60010950E40067510007511000513E5137063
:10140600020512D39509E51295085004D2A680026A
:10141600C2A6C3E51394C8E51294004006751200EF
:08142600751300D0D0D0E032B4
:10151D00C3E511950DE510950C5004D2948002C2CF
:10152D0094C3E511950BE510950A5003D29522C28F
:02153D009522F5
:10144E00021C0000021A000002180000021E001901
:04145E00C10BC10CF1
:0D16360075CD4B75CCFDD2AFD2ADD2CA221E
:03002B00020E863C
:100E8600C0E0C0F0C083C082C0D075D000C000C032
:100E960001C002C003C004C005C006C007C2CF20FF
:100EA6000C03020F3B051DE51D7002051C20B70350
:100EB60030B608751A00751B0F801920B71620B6B4
:100EC60013D3E51B9400E51A94004008E51B151B97
:100ED6007002151AC3E51D9414E51C9400405612C1
:100EE60014A08E448F45D3E5199401E5189400406B
:100EF60021D3E51B9400E51A9400500BC3E54594F5
:100F060064E5449400500BE51924FFFFE51834FF0F
:100F16008019E51B451A7017D3E5459464E544949A
:100F260000400CE5192401FFE43518FE1212FD7588
:100F36001C00751D00D007D006D005D004D003D004
:100F460002D001D000D0D0D082D083D0F0D0E03211
:1012FD00AB07AA06C3EA94004044D3EB9405EA94E5
:10130D0000503BEB4A700AF50CF50DF50AF50B8014
:10131D0026EB24FFFFEA34FFFEAC16AD17120DBE0F
:10132D00E51F2FF50BE51E3EF50AC3E50B9515F5EB
:0F133D000DE50A9514F50C8A188B1912134C2222
:10139A00C281C284C285C286C2877FE87E031215D3
:1013AA003F121618C281C283C284C286C2877FE8EE
:1013BA007E0312153F121618C285C2867FE87E0385
:1013CA0012153F121618C282C283C284C285C2860F
:0C13DA00C2877FE87E0312153F02161840
:10134C00121618E5187046E5191460161460181476
:10135C00601D14602514602B24057031C282C28379
:10136C00800FC285C28622C281C283C2848006C21B
:10137C0081C284C285C286C28722C285C286C281CE
:0E138C00C28222C284C285C281C282C287226E
:0F16270044697374616E63653A2564636D0A00EC
:04146200024A00003A
:10159300758922758DFD758BFDC2ABE4F587759852
:0815A30050D2AFD2ACD28E226F
:03002300020AAA24
:100AAA00C0E0C0F0C083C082C0D075D000C000C012
:100ABA0001C002C003C004C005C006C007209803D5
:100ACA00020C77AF997548008F49E5486003020C1C
:100ADA0072E549B41B004003020C72900AECF82834
:100AEA002873020B3D020B43020B49020B4F020B08
:100AFA0055020B57020B71020B85020B8F020B9FDB
:100B0A00020C19020C72020C1E020C3D020C51025C
:100B1A000C6A020BA4020BB7020BCA020BDD020B12
:100B2A00F0020C03020C72020C72020C72020C72BA
:100B3A00020C6F121643020C7212164C020C72123D
:100B4A001655020C7212165E020C728014C20B75D4
:100B5A0039FF753A00753B2E7B01E4FD7F30121296
:100B6A00A9121667020C72D20B7539FF753A037512
:100B7A003B2E7B01E4FD7F30020C14E5192401FFB2
:100B8A00E435188009E51924FFFFE51834FFFE1241
:100B9A0012FD020C72B2A3020C72C20A7539FF75F9
:100BAA003A00753B2E7B01E4FD7F20805DD20A75F9
:100BBA0039FF753A02753BEE7B01E4FD7F20804ADE
:100BCA00C2097539FF753A00753B2E7B01E4FD7F3A
:100BDA00108037D2097539FF753A03753B0E7B01D0
:100BEA00E4FD7F108024C20C7539FF753A00753B0D
:100BFA002E7B01E4FD7F408011D20C7539FF753AD6
:100C0A0003753B4E7B01E4FD7F401212A980591205
:100C1A00002680541214A08E448F45D2997BFF7A05
:100C2A001679278544258545261207B03099FDC2D5
:100C3A00998035C3E5099419E5089400502A74058A
:100C4A002509F509E48013D3E5099405E50894001C
:100C5A00401674FB2509F50974FF3508F508800864
:100C6A00120F5680031211A03098FDC298D007D0F7
:100C7A0006D005D004D003D002D001D000D0D0D005
:080C8A0082D083D0F0D0E032EB
:100C9200121593AF99EF640B600320B2F612111C88
:100CA20020B70920B60630B40320B57A20B7033046
:100CB200B6327F327E001200037539FF753A037532
:100CC2003B0E7B01E4FD7F101212A97FF47E01121C
:100CD200153F7539FF753A00753B2E7B01E4FD7FA8
:100CE200101212A930B40320B5327F327E001200F6
:100CF200037539FF753A02753BEE7B01E4FD7F20F7
:100D02001212A97FF47E0112153F7539FF753A0060
:100D1200753B2E7B01E4FD7F201212A97FF47E0138
:100D220012153F020CA2300A127539FF753A02758C
:100D32003BEE7B01E4FD7F201212A93009127539C6
:100D4200FF753A03753B0E7B01E4FD7F101212A979
:100D5200300B127539FF753A03753B2E7B01E4FDAA
:100D62007F301212A9300C127539FF753A03753BA8
:100D72004E7B01E4FD7F401212A97FF47E01120036
:0F0D8200031215E8121636E4F518F51902134C92
:0400260075E7202238
:1015D70020B20D7FD07E0712153F20B203120026DE
:0115E70022E1
:04146600024400003C
:08167000AFCDADCCEFFEEDFFA4
:01167800224F
:1014A000D2A012000EC2A030A1FD1216708E428F83
:1014B0004320A1FD1216708E468F47C3E547954322
:0D14C000FFE5469542FE7C007D3B020DD00D
:1015C20012146B7539FF753A04753BAE7B04E4FD6A
:0515D2007F200212A9B8
:10111C0012146B7539FF753A02753BCE7B01E4FDF9
:10112C007F501212A97539FF753A03753BEE7B019E
:10113C00E4FD7F601212A97539FF753A03753B6E99
:10114C007B027D027F301212A912129A7539FF753B
:10115C003A04753B2E7B017D067F281212A9753946
:10116C00FF753A04753B4E7B017D067F381212A940
:10117C007539FF753A04753B6E7B017D067F48120D
:10118C0012A97539FF753A04753B8E7B017D067F7C
:04119C00580212A93A
:09167900D2A5D2A4C2A5C2A4228C
:07168200C2A5D2A4D2A522EB
:0714CD00AD071216797F78CC
:1014D400E4FEF541EEC3940874809480500DEF252A
:1014E400E0FF92A5D2A4C2A40E80E9D2A5D2A4C2E0
:0114F400A453
:0114F50022D4
:1015F8001214CDE4FF1214D4AF051214D4021682CB
:101608001214CD7F401214D4AF051214D4021682DE
:10146B00E4FCECC39408748094805028EC24B0FF07
:10147B001215F87F101215F8E4FF1215F8E4FBEBC8
:10148B00C39480748094805008E4FF1216080B807C
:04149B00EE0C80CE05
:01149F00222A
:10155D00AC07ED24B0FF1215F8EC540FFF1215F87F
:0C156D00EC54F0C4540F4410FF0215F8B9
:0F129A007539FF753A04753B0E7B017D067F1891
:0212A9008F367E
:1012AB00E4F53CF53DEBC454F02536F53EED14FF6B
:1012BB00EB25E02FF5408D3FE53FD395405032AD08
:1012CB003FAF3612155DAC36ECC3953E501FAB39B4
:1012DB00AA3AA93B053DE53DAE3C7002053C14F531
:1012EB00828E83120D91FF1216080C80DB053F8056
:0112FB00C72B
:0112FC0022CF
:101001007FAE1215F87F2E1215F8E4FF1215F87F46
:10101100101215F87F401215F87F811215F87FFF25
:101021001215F87FA11215F87FC81215F87FA812C2
:1010310015F87F3F1215F87FD31215F8E4FF12154A
:10104100F87FD51215F87F801215F87FD91215F89F
:101051007FF11215F87FDA1215F87F121215F87F59
:10106100DB1215F87F201215F87F201215F87F0288
:101071001215F87F8D1215F87F141215F87FA4123E
:0F10810015F87FA61215F87FAF1215F802146B41
:100F56007F2E1215F8E4F522AF22EF3395E0FEC39B
:100F6600EF9408EE64809480501AE522C454F0FF92
:100F76007539FF753A00753B2E7B017D061212A965
:100F8600052280D47539FF753A02753B2E1212A3DD
:100F96007539FF753A02753B4E7B017D067F281237
:100FA60012A97539FF753A02753B6E7B017D067F86
:100FB600381212A97539FF753A02753B8E7B017D91
:100FC600067F481212A97539FF753A02753BAE7B4A
:100FD600017D067F581212A97F2A1215F8E4FF1226
:100FE60015F87F061215F87F071215F87F071215F8
:0B0FF600F8E4FF1215F87F2F0215F839
:1011A0007F2E1215F8E4F522AF22EF3395E0FEC34F
:1011B000EF9408EE64809480501AE522C454F0FF46
:1011C0007539FF753A00753B2E7B017D061212A919
:1011D000052280D412129A7539FF753A04753B2E98
:1011E0007B017D067F281212A97539FF753A0475B7
:1011F0003B4E7B017D067F381212A97539FF753A87
:1012000004753B6E7B017D067F481212A97539FF7C
:0F121000753A04753B8E7B017D067F580212A94B
:10002E0000000000000000000000000000000000C2
:10003E0000000000000000000000000000000000B2
:10004E0000000000000000000000000000000000A2
:10005E000000000000000000000000000000000092
:10006E000000000000000000000000000000000082
:10007E000000000000000000000000000000000072
:10008E000000000000000000000000000000000062
:10009E000000000000000000000000000000000052
:1000AE000000000000000000000000000000000042
:1000BE000000000000000000000000000000000032
:1000CE000000000000000000000000000000000022
:1000DE000000000000000000000000000000000012
:1000EE000000000000000000000000000000000002
:1000FE0000000000000000000000000000000000F2
:10010E0000000000000000000000000000000000E1
:10011E0000000000000000000000000000000000D1
:10012E0000000000000000000000000000000000C1
:10013E0000000000000000000000000000000000B1
:10014E0000000000000000000000000000000000A1
:10015E000000000000000000000000000000000091
:10016E000000000000000000000000000000000081
:10017E000000000000000000000000000000000071
:10018E000000000000000000000000000000000061
:10019E000000000000000000000000000000000051
:1001AE000000000000000000000000000000000041
:1001BE000000000000000000000000000000000031
:1001CE000000000000000000000000000000000021
:1001DE000000000000000000000000000000000011
:1001EE000000000000000000000000000000000001
:1001FE0000000000000000000000000000000000F1
:10020E0000000000000000000000000000000000E0
:10021E0000000000000000000000000000000000D0
:10022E000000F808080808090E0808080808000069
:10023E0080601F00000000000000000000000000B1
:10024E0080A0908E888888FF888888888880800023
:10025E00000000FC44444444444444FC00000000BC
:10026E00008060F80710901011161010D0100000CA
:10027E00010000FF4040415E4040704E4140400052
:10028E00101010FF101082621E020242827E0000C9
:10029E000444827F010100FE4242424242FE0000BF
:1002AE002424A4FE232200FE22222222FE0000008D
:1002BE00080601FF0146407F424242427F40400015
:1002CE0000000000307060FECECC783000000000E0
:1002DE00000000000C0E077F73331E0C00000000A0
:1002EE0000007C7C7C7C7C0010F8FCF81000000088
:1002FE00000000F0FCFE0E0E0607030100000000D9
:10030E000080503070028684CCFCF8700000000033
:10031E000000000E3F7F7F7161415C0C1420400095
:10032E0000003814143800043C040018242418006B
:10033E0000000000007F7F41633E1C0000000000B3
:10034E0000003814143800043C040018242418004B
:10035E00000000001C3E6141517736000000000095
:10036E00000080E0F078381C0E0E06070303C3FF72
:10037E00FFC3030307060E0E1C3878F0E080000062
:10038E00F8FF0F03000000000000000080E0FFFFF8
:10039E00FFFFE0800000000000000000030FFFF8E8
:1003AE001FFFF0C0E06070383C3C1E1F0F0F0F07A0
:1003BE00070F0F0F1F1E3C3C387060E0C0F0FF1F90
:1003CE00000001070F1E1C38307060E0C0C0C0C0B6
:1003DE00C0C0C0C0E0607030381C0E0F03010000BA
:1003EE000000E0F03818007C7C001838F0E00000C7
:1003FE000000070F1C3830303030381C0F0700005B
:10040E000020100807FC24242424242404040000C3
:10041E0040300000384341455941417101083000D8
:10042E000000804020100C03C030000000000000CF
:10043E000001207028242221202024283060000072
:10044E008060F8078888FF888820D81710F0100081
:10045E000000FF003F1010109F403708364180000B
:10046E00202424A47F2434282620FE0222DA06002B
:10047E000402FF49494949FF0000FF081008070020
:10048E0000FE0222DA06000000FF0000000000005D
:10049E0000FF08108847201807000718204080002A
:1004AE00000000000000000000000080C0C0E0F06E
:1004BE00F0F8787C3C3E1E1E1E0F0F0F0F0FEFFF45
:1004CE00FFEF0F0F0F0F0F1E1E1E3E3C7C78F8F035
:1004DE00F0E0C0C08000000000000000000000003E
:1004EE000000000080C0F0F8FC7E1F0F0703030120
:1004FE0000000000000000000000000000F0FFFF00
:10050E00FFFFF000000000000000000000000000EF
:10051E00010307070F3F7EFCF8F0C08000000000CB
:10052E0000E0F8FEFF3F0F03000000000000000097
:10053E00000000000000000000000000F8FFFFFFB8
:10054E00FFFFFFF8000000000000000000000000A8
:10055E000000000000000000030F3FFFFEF8E00067
:10056E00FEFFFFFF01000000000000000000000081
:10057E00000000000000000080C0C0FCFFFFFFFF75
:10058E00FFFFFFFFFCC0C080000000000000000065
:10059E00000000000000000000000001FFFFFFFE51
:1005AE007FFFFFFF8000000000000000000080C001
:1005BE00E0E0F0F8FCFCFEFFFFFFFF7F7F7F3F3F98
:1005CE003F3F7F7F7FFFFFFFFFFEFCFCF8F0E0E088
:1005DE00C08000000000000000000080FFFFFF7FD1
:1005EE0000071F7FFFFCE0E070783C3E3E1F1F0FB0
:1005FE000F0F0707030303010100000000000000B6
:10060E0000000000000000010103030307070F0FA5
:10061E000F1F1F3E3E3C7870E0E0FCFF7F1F07007F
:10062E000000000001070F1F3F7EFCF0E0E0C080DD
:10063E0000000000000000000000000000000000AC
:10064E00000000000000000000000000000000009C
:10065E0080C0C0E0F0F87E3F1F0F030100000000D5
:10066E000000000000000000000000010307070F5B
:10067E000F1F1E3E3C7C787878F0F0F0F0F0F0F032
:10068E00F0F0F0F0F0F0F07878787C3C3C1E1F0F24
:10069E000F0703030100000000000000000000002F
:1006AE0000E010080810E000000F102020100F00CE
:1006BE0000001010F8000000000020203F20200055
:1006CE00007008080808F0000030282422213000AD
:1006DE0000300808088870000018202121221C0014
:1006EE000000804030F8000000060524243F24243A
:1006FE0000F88888880808000019202020110E00B4
:10070E0000E0108888900000000F112020201F00AC
:10071E0000180808886818000000003E010000005C
:10072E000070880808887000001C222121221C00FD
:10073E0000F008080810E0000001122222110F003C
:10157900C3E50F951FFFE50E951EFEEF7802CEC35A
:0A15890013CE13D8F9F5178E1622C1
:030000000210905B
:0C109000787FE4F6D8FD75814B0210D784
:100D9100BB010CE58229F582E5833AF583E0225017
:100DA10006E92582F8E622BBFE06E92582F8E22261
:0D0DB100E58229F582E5833AF583E493227B
:100DBE00EF8DF0A4A8F0CF8CF0A428CE8DF0A42E49
:020DCE00FE2203
:100DD000BC000BBE0029EF8DF084FFADF022E4CC07
:100DE000F875F008EF2FFFEE33FEEC33FCEE9DECD0
:100DF000984005FCEE9DFE0FD5F0E9E4CEFD22ED16
:100E0000F8F5F0EE8420D21CFEADF075F008EF2F5F
:100E1000FFED33FD4007985006D5F0F222C398FD50
:050E20000FD5F0EA22ED
:10074E00E5312425F8E60531227822300702782596
:10075E00E475F001120E50020E252000EB7F2ED212
:10076E00008018EF540F2490D43440D4FF30040B83
:10077E00EF24BFB41A0050032461FFE53260021566
:10078E00320535E5357002053430070D7822E475F3
:10079E00F001120E50EF020E3E0214F67403D20751
:1007AE008003E4C207F5318B228A238924E4F532D3
:1007BE00F534F535E53260077F2012078980F5752F
:1007CE0033FFC201C200C202C203C205C206C20882
:1007DE00120757FF700D3007057F0012079AAF35CD
:1007EE00AE3422B4255FC2D5C204120757FF24D0FF
:1007FE00B40A00501A75F00A783230D50508B6FFE3
:10080E000106C6A426F620D5047002D20380D92490
:10081E00CFB41A00EF5004C2E5D20402099AD201F5
:10082E0080C6D20080C0D20280BCD2D580BAD2059A
:10083E0080B47F201207892002077401B532004070
:10084E00F112074EFF1207890207C2D208D20680A4
:10085E009512074EFB12074EFA12074EF94A4B70CD
:10086E0006796B7A0A7BFF20022EE532602A7E0023
:10087E008E82758300120D9160060EEE653370F058
:10088E00C2D5EBC0E0EAC0E0E9C0E0EE1209E1D06B
:10089E00E0F9D0E0FAD0E0FB120E25FF60AAEBC023
:1008AE00E0EAC0E0E9C0E0120789D0E02401F9D007
:1008BE00E03400FAD0E0FBE5330460DCD533D980B8
:1008CE00877BFF7A0979DDD202809C7910800279CC
:1008DE0008C206C2088008D2D5790A8004790AC2F5
:1008EE00D5E533047002F533E4FAFDFEFF12074E30
:1008FE00FC7B0820011312074EFD7B1030000A12FC
:10090E00074EFE12074EFF7B20EC3382D592D55058
:10091E0013C3E43000069FFFE49EFEE42001039D16
:10092E00FDE49CFCE4CBF8C201EC700CCFCECDCC38
:10093E00E824F8F870F38017C3EF33FFEE33FEEDC3
:10094E0033FDEC33FCEB33FB994002FB0FD8E9EBA4
:10095E00300105F8D0E0C448B201C0E00AEC4D4EBB
:10096E004F78207B0070C2EAB5330040BCC0E01265
:10097E0009E3D0F0D0E0200104C4C0E0C4B201C04D
:10098E00F0120772D0F0D5F0EB0207C2120E60081B
:10099E005F5308D95808304C082C4208DD4F08E543
:0F09AE004408E54908454308EB5508CF4608CFF4
:1009BD004508CF470A8B5008342D08382E085B2B7D
:1009CD00083C230859200A742A07F44800000853EC
:1009DD003F3F3F00790AA2D5200314300509B91015
:1009ED00020404B9080104A2D52006025001042016
:1009FD0002689202B532005034C0E07F20300319F6
:100A0D007F30A20272067205500F120A3AC202C25C
:100A1D0006C205C2087F30800F300503E9C0E01221
:100A2D000789300503D0E0F9D0E0B532CC30051799
:100A3D007F30B9100C1207897F583004077F7880FA
:100A4D0003B908031207893002057F2D0207897F3C
:100A5D00202008F87F2B2006F322920280CF286EEB
:100A6D00756C6C2900D20112074E3001F8C2017865
:100A7D003230D50108F60207F42D504349581207BC
:100A8D004E2403B405004001E4900A869312077AC0
:0D0A9D00743A12077AD2037532040208D9A8
:10109C000215ABE493A3F8E493A34003F68001F2AA
:1010AC0008DFF48029E493A3F85407240CC8C33355
:1010BC00C4540F4420C8834004F456800146F6DF24
:1010CC00E4800B010204081020408090142EE47E72
:1010DC00019360BCA3FF543F30E509541FFEE49319
:1010EC00A360010ECF54C025E060A840B8E493A3E0
:1010FC00FAE493A3F8E493A3C8C582C8CAC583CA0B
:10110C00F0A3C8C582C8CAC583CADFE9DEE780BEC2
:01146A000081
:100E2500BB010689828A83E0225002E722BBFE02CB
:090E3500E32289828A83E49322FE
:100E3E00BB010689828A83F0225002F722BBFE0193
:020E4E00F3228D
:100E5000FAE6FB0808E6F925F0F618E6CA3AF622A3
:100E6000D083D082F8E4937012740193700DA3A321
:100E700093F8740193F5828883E473740293686035
:060E8000EFA3A3A380DF35
:1014F600EFB40A07740D121501740A309811A899F1
:10150600B8130CC2983098FDA899C298B811F63055
:0715160099FDC299F599222D
:00000001FF
